:1000000088C00000A5C00000A3C00000A1C000007F
:100010009FC000009DC000009BC0000099C0000070
:1000200097C0000095C0000093C0000091C0000080
:100030008FC000008DC000008BC0000089C0000090
:1000400087C0000085C0000083C0000081C00000A0
:100050007FC000007DC000007BC0000079C00000B0
:1000600077C0000075C0000073C0000071C00000C0
:100070006FC000006DC000006BC0000069C00000D0
:1000800067C0000065C0000063C0000061C00000E0
:100090005FC000005DC000005BC0000059C00000F0
:1000A00057C0000055C0000053C0000051C0000000
:1000B0004FC0000070C000004BC0000049C00000ED
:1000C00047C0000045C0000043C0000041C0000020
:1000D0003FC000003DC000003BC0000039C0000030
:1000E00037C00000084AD73B3BCE016E84BCBFFD41
:1000F000C12F3D6C74319ABD56833DDA3D00C77FF8
:1001000011BED9E4BB4C3E916BAAAABE0000008090
:100110003F0011241FBECFEFD1E2DEBFCDBF00E014
:100120000CBF12E0A0E0B2E0EAEBFEE000E00BBFA3
:1001300002C007900D92A430B107D9F722E0A4E0E5
:10014000B2E001C01D92AB33B207E1F716D4B3C6DB
:1001500057CF10922202E1EAF0E010828FE1809303
:10016000A50081E08093A4001092A9001092A8003D
:100170001092AB001092AA001092AD001092AC0049
:100180001092A7001092A6001092A0001092A20058
:1001900084E0808308951F920F920FB60F9211246E
:1001A0008F93809122028F5F809322028FE1809350
:1001B000A50081E08093A4008F910F900FBE0F9057
:1001C0001F901895F894C5DF81E0809372007894B1
:1001D0000895CF92DF92EF92FF92CF93DF93F0904A
:1001E0002202C091A400D091A500ECDF6F2D70E039
:1001F00080E090E033D56B017C01BE0180E090E0AF
:100200002BD520E030E048EF55E400D420E03EEF6D
:1002100040E657E488D49B01AC01C701B601F7D38F
:1002200020E030E04AE754E4D1D5E5D4CB01DF91BA
:10023000CF91FF90EF90DF90CF90089586E69EE0FB
:100240000197F1F700004098419880E388B9429AFD
:100250008FEF97E40197F1F700C00000429886E61F
:100260009EE00197F1F700004098419880E388B93B
:10027000429A8FEF97E40197F1F700C0000042988F
:1002800086E69EE00197F1F700004098419880E3F0
:1002900088B9429A8FEF97E40197F1F700C0000008
:1002A000429886E69EE00197F1F700004098419859
:1002B00080E288B9429A8FEF97E40197F1F700C086
:1002C00000004298089598B19F7098B998B1282F6E
:1002D000207F922B98B940984198429AEFEFF7E42B
:1002E0003197F1F700C00000429898B19F7098B91B
:1002F00098B18295807F892B88B940984198429A1D
:100300008FEF97E40197F1F700C00000429808953D
:1003100086E69EE00197F1F7000088E2D4DF81E0F5
:10032000D2DF86E0D0DF8EE0CEDF80E8CCCF08954C
:1003300098B19F7098B998B1282F207F922B98B9C7
:10034000409A4198429AEFEFF7E43197F1F700C0F5
:100350000000429898B19F7098B998B18295807FBB
:10036000892B88B9409A4198429A8FEF97E4019778
:10037000F1F700C000004298089580E8A4CF0895E6
:10038000CF93DF93EC018881882329F02196D0DF79
:1003900089918111FCCFDF91CF910895823069F06E
:1003A00018F4813031F00895833059F0843069F0C9
:1003B00008958FE7860F87CF08958FEB860F83CF41
:1003C000089583E9860F7FCF089583ED860F7BCF55
:1003D00008950F931F93CF93DF938A01E901882338
:1003E00011F0611102C0C9DF01C0D8DFC530D105ED
:1003F00009F0CDC09801329522952F7023273F70C8
:100400002327A7E4B3E048D59695879596958795D9
:1004100096958795C09690931D0280931C0288DF65
:100420009801369527953695279536952795A5EC0D
:10043000B0E232D5AC01529542954F7045275F70BE
:10044000452750931F0240931E029A01ADECBCEC6D
:1004500023D59695879596958795969587959C0132
:10046000220F331F880F991F880F991F880F991F1C
:10047000820F931F481B590BCA01C09690933602F6
:100480008093350255DF04C0C330D10509F084C024
:1004900098013695279536952795ABE7B4E1FCD4BE
:1004A000AC015695479550931F0240931E029A0146
:1004B000ADECBCECF1D4969587959695879596957D
:1004C00087959C01220F331F880F991F880F991F52
:1004D000880F991F820F931F481B590BCA01C096A2
:1004E00090932E0280932D0223DF9801ADECBCEC9B
:1004F000D3D4AC0156954795569547955695479553
:1005000050931F0240931E029A01C6D49695879578
:1005100096958795969587959C01220F331F880F96
:10052000991F880F991F880F991F820F931F481BCF
:10053000590BCA01C0969093280280932702F8DED7
:1005400003C0C130D105F1F49801ADECBCECA4D4EA
:100550009695879596958795969587959C01220FF8
:10056000331F880F991F880F991F880F991F820FBB
:10057000931F081B190BC801C096909334028093F7
:100580003302D6DE269764F085E4D2DE09C0C4309B
:10059000D10509F079CF44CFC230D10591F6A5CF6E
:1005A000DF91CF911F910F91089587B1876F87B920
:1005B00088B1807888B90895ECEBF0E0108280E192
:1005C0008093B8001092B9001092BA0084E0808342
:1005D000089594EA9093BC00ECEBF0E090819923AD
:1005E000ECF7EFEFFFE83197F1F700C0000096EA73
:1005F0009093BB0094E89093BC00ECEBF0E090810A
:100600009923ECF7EFEFFFE83197F1F700C0000016
:100610006093BB0094E89093BC00ECEBF0E0908119
:100620009923ECF7EFEFFFE83197F1F700C00000F6
:100630008093BB0084E88093BC00ECEBF0E0808109
:100640008823ECF78FEF9FE80197F1F700C00000D7
:1006500084E98093BC00089594EA9093BC00ECEB8D
:10066000F0E090819923ECF796EA9093BB0094E830
:100670009093BC00ECEBF0E090819923ECF7809331
:10068000BB0084E88093BC00ECEBF0E08081882321
:10069000ECF784EA8093BC00ECEBF0E080818823E7
:1006A000ECF787EA8093BB0084E88093BC00ECEB16
:1006B000F0E080818823ECF784E88093BC00ECEBC9
:1006C000F0E080818823ECF7EBEBF0E08081108292
:1006D00094E89093BC00ECEBF0E090819923ECF768
:1006E0000895F89462DFAADD13DE66DF789408953A
:1006F000EF92FF920F931F93CF93DF93F82EE62E86
:10070000EA018901DD238CF449DE80E092E038DEE5
:10071000AE01DD2324F4442755274C1B5D0B61E01B
:100720006E0D98018F2D55DE0AC038DE82E092E012
:1007300027DE61E06E0D9801AE018F2D4ADEDF915C
:10074000CF911F910F91FF90EF900895CADF6DE256
:1007500080E03FDF6DE288E03CCF0895CF92DF92EA
:10076000EF92FF921F93CF93DF9382E375DF83E3D2
:1007700073DF84E371DFD82F85E36EDFF82E86E325
:100780006BDF182F87E368DF6D2F70E0C82FD0E094
:10079000DC2FCC277F29882777FD8095982F5ED284
:1007A0006B017C01BE01612B882777FD8095982F16
:1007B00055D29B01AC01C701B601B5D18CD123EA5A
:1007C0003CE445E652E402D316D2CB01DF91CF914F
:1007D0001F91FF90EF90DF90CF9008954F925F921E
:1007E0006F927F928F929F92AF92BF92CF92DF9241
:1007F000EF92FF92CF93DF93CDB7DEB728970FB676
:10080000F894DEBF0FBECDBFE4DCBC01882777FDC6
:100810008095982F23D26B017C0140902F0250903D
:10082000300260903102709032029B01AC01C30132
:10083000B201CCD220910C0230910D0240910E02F7
:1008400050910F02E4D04B015C0160930C02709355
:100850000D0280930E0290930F02809108029091F6
:100860000902A0910A02B0910B0289839A83AB839B
:10087000BC83209137023091380240913902509167
:100880003A02C301B201A2D26D837E838F8398871F
:100890002091290230912A0240912B0250912C0282
:1008A000C501B40193D29B01AC016D817E818F8122
:1008B0009885ADD04B015C0129813A814B815C81E7
:1008C000C301B201A3D0A70196012DD12091180236
:1008D0003091190240911A0250911B0277D29B016C
:1008E000AC01C501B40193D060932302709324023C
:1008F000809325029093260289819A81AB81BC81E5
:100900008093040290930502A0930602B09307021D
:10091000409208025092090260920A0270920B0201
:100920008091140290911502A0911602B0911702C5
:100930008093100290931102A0931202B0931302BD
:10094000C0921402D0921502E0921602F0921702A1
:1009500028960FB6F894DEBF0FBECDBFDF91CF91C2
:10096000FF90EF90DF90CF90BF90AF909F908F90CF
:100970007F906F905F904F900895E8DE80E090E068
:10098000A0E8BFE38093370290933802A093390226
:10099000B0933A028093290290932A02A0932B02EB
:1009A000B0932C028093180290931902A0931A021C
:1009B000B0931B0207DCD2DEEC01BC01882777FD77
:1009C0008095982F4BD160932F02709330028093C3
:1009D00031029093320202DF23E030E0AE0161E0A9
:1009E00070E082E090E084DE609123027091240246
:1009F0008091250290912602FED025E030E0AB01E7
:100A000061E070E081E090E073DED5CF5058BB2705
:100A1000AA270ED09AC18BD130F090D120F031F4BA
:100A20009F3F11F41EF45BC10EF4E095E7FB51C14A
:100A3000E92F9CD180F3BA176207730784079507E3
:100A400018F071F49EF5B4C10EF4E0950B2EBA2F98
:100A5000A02D0B01B90190010C01CA01A0011124C4
:100A6000FF27591B99F0593F50F4503E68F11A1670
:100A7000F040A22F232F342F4427585FF3CF469501
:100A800037952795A795F0405395C9F77EF41F1623
:100A9000BA0B620B730B840BBAF09150A1F0FF0FED
:100AA000BB1F661F771F881FC2F70EC0BA0F621FD9
:100AB000731F841F48F4879577956795B795F795C9
:100AC0009E3F08F0B3CF9395880F08F09927EE0F5B
:100AD000979587950895DF93DD27B92FBF7740E875
:100AE0005FE31616170648075B0710F4D92F67D186
:100AF0009F938F937F936F93CCD1E4EEF0E0F2D08D
:100B000024D12F913F914F915F916CD1DD2349F01A
:100B10009058A2EA2AED3FE049EC5FE3D0785D27E8
:100B200087DFDF9112C10CD010C108D140F0FFD097
:100B300030F021F45F3F19F0CCC051113AC1CFC061
:100B400015D198F39923C9F35523B1F3951B550B90
:100B5000BB27AA2762177307840738F09F5F5F4F90
:100B6000220F331F441FAA1FA9F333D00E2E3AF0D1
:100B7000E0E830D091505040E695001CCAF729D0EB
:100B8000FE2F27D0660F771F881FBB1F261737073A
:100B90004807AB07B0E809F0BB0B802DBF01FF276A
:100BA00093585F4F2AF09E3F510568F092C001C1F3
:100BB0005F3FECF3983EDCF3869577956795B795A4
:100BC000F7959F5FC9F7880F911D9695879597F9BF
:100BD0000895E1E0660F771F881FBB1F6217730738
:100BE0008407BA0720F0621B730B840BBA0BEE1F4D
:100BF00088F7E095089504D06894B111DAC008959B
:100C0000BDD088F09F5790F0B92F9927B751A0F029
:100C1000D1F0660F771F881F991F1AF0BA95C9F790
:100C200012C0B13081F0C4D0B1E00895C1C0672FC7
:100C3000782F8827B85F39F0B93FCCF38695779540
:100C40006795B395D9F73EF4909580957095619529
:100C50007F4F8F4F9F4F0895E89409C097FB3EF454
:100C600090958095709561957F4F8F4F9F4F9923F9
:100C7000A9F0F92F96E9BB279395F6958795779577
:100C80006795B795F111F8CFFAF4BB0F11F460FF37
:100C90001BC06F5F7F4F8F4F9F4F16C0882311F08F
:100CA00096E911C0772321F09EE8872F762F05C0A3
:100CB000662371F096E8862F70E060E02AF09A953E
:100CC000660F771F881FDAF7880F9695879597F933
:100CD000089597F99F6780E870E060E008959FEFBE
:100CE00080EC0895DF93CF931F930F93FF92EF92C1
:100CF000DF927B018C01689405C0DA2EEF0172D07F
:100D0000FE01E894A5912591359145915591AEF359
:100D1000EF018EDEFE019701A801DA9479F7DF90EA
:100D2000EF90FF900F911F91CF91DF9108950024D4
:100D30000A941616170618060906089500240A9440
:100D400012161306140605060895092E0394000CC6
:100D500011F4882352F0BB0F40F4BF2B11F460FF55
:100D600004C06F5F7F4F8F4F9F4F089557FD90587E
:100D7000440F551F59F05F3F71F04795880F97FB5F
:100D8000991F61F09F3F79F0879508951216130619
:100D90001406551FF2CF4695F1DF08C01616170648
:100DA0001806991FF1CF869571056105089408957D
:100DB000E894BB2766277727CB0197F908959B0115
:100DC000AC0160E070E080E89FE3ADCE0BD0BDCF1A
:100DD000AEDF28F0B3DF18F0952309F07ACF7FCF8C
:100DE0001124E7CFC3DFA0F3959FD1F3950F50E017
:100DF000551F629FF001729FBB27F00DB11D639FCD
:100E0000AA27F00DB11DAA1F649F6627B00DA11D72
:100E1000661F829F2227B00DA11D621F739FB00D18
:100E2000A11D621F839FA00D611D221F749F332788
:100E3000A00D611D231F849F600D211D822F762F21
:100E40006A2F11249F5750408AF0E1F088234AF01E
:100E5000EE0FFF1FBB1F661F771F881F915050406A
:100E6000A9F79E3F510570F034CFA3CF5F3FECF35D
:100E7000983EDCF3869577956795B795F795E79556
:100E80009F5FC1F7FE2B880F911D9695879597F967
:100E900008959B01AC019ACFA29FB001B39FC001FE
:100EA000A39F700D811D1124911DB29F700D811D96
:0A0EB0001124911D0895F894FFCF5E
:040EBA002D002B00DC
:00000001FF
