:100000000C9489000C94AA000C94AA000C94AA00E9
:100010000C94AA000C94AA000C94AA000C94AA00B8
:100020000C94AA000C94AA000C94AA000C94AA00A8
:100030000C94AA000C94AA000C94AA000C94AA0098
:100040000C94AA000C94AA000C94AA000C94AA0088
:100050000C94AA000C94AA000C94AA000C94AA0078
:100060000C94AA000C94AA000C94AA000C94AA0068
:100070000C94AA000C94AA000C94AA000C94AA0058
:100080000C94AA000C94AA000C94AA000C94AA0048
:100090000C94AA000C94AA000C94AA000C94AA0038
:1000A0000C94AA000C94AA000C94AA000C94AA0028
:1000B0000C94AA000C94A4020C94AA000C94AA001C
:1000C0000C94AA000C94AA000C94AA000C94AA0008
:1000D0000C94AA000C94AA000C94AA000C94AA00F8
:1000E0000C94AA00084AD73B3BCE016E84BCBFFDEE
:1000F000C12F3D6C74319ABD56833DDA3D00C77FF8
:1001000011BED9E4BB4C3E916BAAAABE0000008090
:100110003F0011241FBECFEFD1E2DEBFCDBF00E014
:100120000CBF12E0A0E0B2E0EAE3FDE000E00BBFAC
:1001300002C007900D92AE30B107D9F722E0AEE0D1
:10014000B2E001C01D92AD31B207E1F70E94D603C3
:100150000C949B060C94000086E69EE00197F1F754
:1001600000004098419880E388B9429A8FEF97E465
:100170000197F1F700C00000429886E69EE00197E3
:10018000F1F700004098419880E388B9429A8FEFD8
:1001900097E40197F1F700C00000429886E69EE0E0
:1001A0000197F1F700004098419880E388B9429A9E
:1001B0008FEF97E40197F1F700C00000429886E6C0
:1001C0009EE00197F1F700004098419880E288B9DD
:1001D000429A8FEF97E40197F1F700C00000429830
:1001E000089598B19F7098B998B1282F207F922BCD
:1001F00098B940984198429AEFEFF7E43197F1F7B8
:1002000000C00000429898B19F7098B998B182954B
:10021000807F892B88B940984198429A8FEF97E464
:100220000197F1F700C000004298089586E69EE02D
:100230000197F1F7000088E20E94F10081E00E943E
:10024000F10086E00E94F1008EE00E94F10080E85B
:100250000E94F100089598B19F7098B998B1282F25
:10026000207F922B98B9409A4198429AEFEFF7E499
:100270003197F1F700C00000429898B19F7098B98B
:1002800098B18295807F892B88B9409A4198429A8B
:100290008FEF97E40197F1F700C0000042980895AE
:1002A00080E80E94F1000895CF93DF93EC018881EC
:1002B000882331F021960E942B0189918111FBCF77
:1002C000DF91CF910895823071F018F4813031F0D0
:1002D0000895833069F0843081F008958FE7860FA8
:1002E0000E94F10008958FEB860F0E94F10008959F
:1002F00083E9860F0E94F100089583ED860F0E9426
:10030000F10008950F931F93CF93DF938A01E901C2
:10031000882311F0611103C00E94500102C00E94A5
:100320006301C530D10509F0DBC0980132952295F3
:100330002F7023273F702327A7E4B3E00E948C0689
:10034000969587959695879596958795C09690935F
:100350000F0280930E020E942B019801369527957B
:100360003695279536952795A5ECB0E20E948C0628
:10037000AC01529542954F7045275F7045275093C9
:100380001102409310029A01ADECBCEC0E948C0665
:100390009695879596958795969587959C01220FBA
:1003A000331F880F991F880F991F880F991F820F7D
:1003B000931F481B590BCA01C09690931C0280934F
:1003C0001B020E942B0104C0C330D10509F08DC06F
:1003D00098013695279536952795ABE7B4E10E94AD
:1003E0008C06AC015695479550931102409310022C
:1003F0009A01ADECBCEC0E948C069695879596957B
:100400008795969587959C01220F331F880F991F1A
:10041000880F991F880F991F820F931F481B590B34
:10042000CA01C09690931802809317020E942B0174
:100430009801ADECBCEC0E948C06AC01569547953A
:100440005695479556954795509311024093100243
:100450009A010E948C069695879596958795969514
:1004600087959C01220F331F880F991F880F991FB2
:10047000880F991F820F931F481B590BCA01C09602
:1004800090931602809315020E942B0103C0C13085
:10049000D10501F59801ADECBCEC0E948C06969557
:1004A000879596958795969587959C01220F331F82
:1004B000880F991F880F991F880F991F820F931F0C
:1004C000081B190BC801C09690931A028093190259
:1004D0000E942B0126976CF085E40E942B0109C035
:1004E000C430D10509F070CF38CFC230D10579F6CC
:1004F0009FCFDF91CF911F910F91089581E00E94CE
:10050000F100089510921402E1EAF0E010828FE108
:100510008093A50081E08093A4001092A90010921E
:10052000A8001092AB001092AA001092AD00109299
:10053000AC001092A7001092A6001092A00010929A
:10054000A20084E0808308951F920F920FB60F924D
:1005500011248F93809114028F5F809314028FE196
:100560008093A50081E08093A4008F910F900FBE2F
:100570000F901F901895F8940E94820281E080935A
:10058000720078940895CF92DF92EF92FF92CF930A
:10059000DF9360911402C091A400D091A500109245
:1005A000A10070E080E090E00E946E056B017C018C
:1005B000BE0180E090E00E946C0520E030E048EF52
:1005C00055E40E94460420E03EEF40E657E40E94D6
:1005D000D3049B01AC01C701B6010E94470420E08F
:1005E00030E04AE754E40E9426060E943B05CB0116
:1005F000DF91CF91FF90EF90DF90CF90089587B17A
:10060000876F87B988B1807888B90895ECEBF0E0FE
:10061000108280E18093B8001092B9001092BA0065
:1006200084E08083089594EA9093BC00ECEBF0E0C2
:1006300090819923ECF7EFEFFFE83197F1F700C0D5
:10064000000096EA9093BB0094E89093BC00ECEB1A
:10065000F0E090819923ECF7EFEFFFE83197F1F7A5
:1006600000C000006093BB0094E89093BC00ECEBEA
:10067000F0E090819923ECF7EFEFFFE83197F1F785
:1006800000C000008093BB0084E88093BC00ECEBCA
:10069000F0E080818823ECF78FEF9FE80197F1F776
:1006A00000C0000084E98093BC00089594EA909310
:1006B000BC00ECEBF0E090819923ECF796EA909384
:1006C000BB0094E89093BC00ECEBF0E090819923A0
:1006D000ECF78093BB0084E88093BC00ECEBF0E087
:1006E00080818823ECF784EA8093BC00ECEBF0E097
:1006F00080818823ECF787EA8093BB0084E88093AD
:10070000BC00ECEBF0E080818823ECF784E8809378
:10071000BC00ECEBF0E080818823ECF7EBEBF0E041
:100720008081108294E89093BC00ECEBF0E0908123
:100730009923ECF70895F8940E94FF020E940603A3
:1007400078940895EF92FF920F931F93CF93DF93C6
:10075000F82EE62EEA018901DD23A4F40E9463014C
:1007600089E092E00E945401AE01DD2324F4442785
:1007700055274C1B5D0B61E06E0D98018F2D0E947B
:1007800082010DC00E9463018BE092E00E9454013F
:1007900061E06E0D9801AE018F2D0E948201DF9104
:1007A000CF911F910F91FF90EF9008950E949B03AE
:1007B0000E94AC000E9416010E947E026DE280E061
:1007C0000E9413036DE288E00E9413030E94BB02A3
:1007D00082E30E94560383E30E94560384E30E944F
:1007E0005603D82F85E30E945603F82E86E30E9415
:1007F0005603182F87E30E9456036D2F70E0C82F11
:10080000D0E0DC2FCC277F29882777FD8095982F93
:100810000E946E056B017C01BE01612B882777FD6C
:100820008095982F0E946E059B01AC01C701B6010F
:100830000E94D3040E94AB046B017C010E94C3029E
:1008400024E030E0AC0161E082E00E9482010E947D
:10085000BB0223EA3CE445E652E4C701B6010E942C
:1008600026060E943B0523E030E0AB0161E070E02A
:1008700081E090E00E94A2030E94C30224E030E0E5
:10088000AC0166E082E00E948201A0CF5058BB27F5
:10089000AA270ED09AC18BD130F090D120F031F43C
:1008A0009F3F11F41EF45BC10EF4E095E7FB51C1CC
:1008B000E92F9CD180F3BA17620773078407950765
:1008C00018F071F49EF5B4C10EF4E0950B2EBA2F1A
:1008D000A02D0B01B90190010C01CA01A001112446
:1008E000FF27591B99F0593F50F4503E68F11A16F2
:1008F000F040A22F232F342F4427585FF3CF469583
:1009000037952795A795F0405395C9F77EF41F16A4
:10091000BA0B620B730B840BBAF09150A1F0FF0F6E
:10092000BB1F661F771F881FC2F70EC0BA0F621F5A
:10093000731F841F48F4879577956795B795F7954A
:100940009E3F08F0B3CF9395880F08F09927EE0FDC
:10095000979587950895DF93DD27B92FBF7740E8F6
:100960005FE31616170648075B0710F4D92F67D107
:100970009F938F937F936F93CCD1E4EEF0E0F2D00E
:1009800024D12F913F914F915F916CD1DD2349F09C
:100990009058A2EA2AED3FE049EC5FE3D0785D276A
:1009A00087DFDF9112C10CD010C108D140F0FFD019
:1009B00030F021F45F3F19F0CCC051113AC1CFC0E3
:1009C00015D198F39923C9F35523B1F3951B550B12
:1009D000BB27AA2762177307840738F09F5F5F4F12
:1009E000220F331F441FAA1FA9F333D00E2E3AF053
:1009F000E0E830D091505040E695001CCAF729D06D
:100A0000FE2F27D0660F771F881FBB1F26173707BB
:100A10004807AB07B0E809F0BB0B802DBF01FF27EB
:100A200093585F4F2AF09E3F510568F092C001C174
:100A30005F3FECF3983EDCF3869577956795B79525
:100A4000F7959F5FC9F7880F911D9695879597F940
:100A50000895E1E0660F771F881FBB1F62177307B9
:100A60008407BA0720F0621B730B840BBA0BEE1FCE
:100A700088F7E095089504D06894B111DAC008951C
:100A8000BDD088F09F5790F0B92F9927B751A0F0AB
:100A9000D1F0660F771F881F991F1AF0BA95C9F712
:100AA00012C0B13081F0C4D0B1E00895C1C0672F49
:100AB000782F8827B85F39F0B93FCCF386957795C2
:100AC0006795B395D9F73EF49095809570956195AB
:100AD0007F4F8F4F9F4F0895E89409C097FB3EF4D6
:100AE00090958095709561957F4F8F4F9F4F99237B
:100AF000A9F0F92F96E9BB279395F69587957795F9
:100B00006795B795F111F8CFFAF4BB0F11F460FFB8
:100B10001BC06F5F7F4F8F4F9F4F16C0882311F010
:100B200096E911C0772321F09EE8872F762F05C024
:100B3000662371F096E8862F70E060E02AF09A95BF
:100B4000660F771F881FDAF7880F9695879597F9B4
:100B5000089597F99F6780E870E060E008959FEF3F
:100B600080EC0895DF93CF931F930F93FF92EF9242
:100B7000DF927B018C01689405C0DA2EEF0172D000
:100B8000FE01E894A5912591359145915591AEF3DB
:100B9000EF018EDEFE019701A801DA9479F7DF906C
:100BA000EF90FF900F911F91CF91DF910895002456
:100BB0000A941616170618060906089500240A94C2
:100BC00012161306140605060895092E0394000C48
:100BD00011F4882352F0BB0F40F4BF2B11F460FFD7
:100BE00004C06F5F7F4F8F4F9F4F089557FD905800
:100BF000440F551F59F05F3F71F04795880F97FBE1
:100C0000991F61F09F3F79F087950895121613069A
:100C10001406551FF2CF4695F1DF08C016161706C9
:100C20001806991FF1CF86957105610508940895FE
:100C3000E894BB2766277727CB0197F908959B0196
:100C4000AC0160E070E080E89FE3ADCE0BD0BDCF9B
:100C5000AEDF28F0B3DF18F0952309F07ACF7FCF0D
:100C60001124E7CFC3DFA0F3959FD1F3950F50E098
:100C7000551F629FF001729FBB27F00DB11D639F4E
:100C8000AA27F00DB11DAA1F649F6627B00DA11DF4
:100C9000661F829F2227B00DA11D621F739FB00D9A
:100CA000A11D621F839FA00D611D221F749F33270A
:100CB000A00D611D231F849F600D211D822F762FA3
:100CC0006A2F11249F5750408AF0E1F088234AF0A0
:100CD000EE0FFF1FBB1F661F771F881F91505040EC
:100CE000A9F79E3F510570F034CFA3CF5F3FECF3DF
:100CF000983EDCF3869577956795B795F795E795D8
:100D00009F5FC1F7FE2B880F911D9695879597F9E8
:100D100008959B01AC019ACFA29FB001B39FC0017F
:100D2000A39F700D811D1124911DB29F700D811D17
:0A0D30001124911D0895F894FFCFDF
:0E0D3A0020203A20203A2020002D002B00001F
:00000001FF
