:100000000C9472000C9493000C9493000C94930045
:100010000C9493000C9493000C9493000C94930014
:100020000C9493000C9493000C9493000C94930004
:100030000C9493000C9493000C9493000C949300F4
:100040000C9493000C9493000C9493000C949300E4
:100050000C9493000C9493000C9493000C949300D4
:100060000C9493000C9493000C9493000C949300C4
:100070000C9493000C9493000C9493000C949300B4
:100080000C9493000C9493000C9493000C949300A4
:100090000C9493000C9493000C9493000C94930094
:1000A0000C9493000C9493000C9493000C94930084
:1000B0000C9493000C9493000C9493000C94930074
:1000C0000C9493000C9493000C9493000C94930064
:1000D0000C9493000C9493000C9493000C94930054
:1000E0000C94930011241FBECFEFD1E2DEBFCDBF31
:1000F00000E00CBF12E0A0E0B2E0ECE7F2E000E0CC
:100100000BBF02C007900D92A030B107D9F712E0E3
:10011000A0E0B2E001C01D92A030B107E1F70E945B
:1001200001010C943C010C940000AAE0B1E08C9118
:10013000846E8C93EBE0F1E08081887180838C91F8
:1001400088618C9380818861808308950E949500E6
:100150000895E1E2F1E010828CEF8093250181E0C7
:100160008093240193E0909329018FEF80932801DD
:1001700090932B0180932A0190932D0180932C0161
:100180008BEA8093200185E0808308959093290174
:100190008093280170932B0160932A010895EBE06E
:1001A000F1E090819871892B8083089580EA0E9404
:1001B000CF00089584E40E94CF00089584E80E944F
:1001C000CF00089580E60E94CF00089580E80E9445
:1001D000CF00089580E20E94CF00089580E40E943D
:1001E000CF00089584E00E94CF00089580E00E942F
:1001F000CF000895F8940E94A6000E94A900789468
:1002000008950E94FA008FEF90E06FEF70E00E9477
:10021000C6000E94D6008FEF9FEFA6E88150904065
:10022000A040E1F700C000000E94F6008FEF9FE7BA
:10023000A6E181509040A040E1F700C000008FEFA0
:1002400093E06FEF73E00E94C6000E94DA008FEF28
:100250009FEFA6E881509040A040E1F700C0000069
:100260000E94F6008FEF9FE7A6E181509040A040EA
:0C027000E1F700C00000C7CFF894FFCFFA
:00000001FF
