:100000000C9472000C9493000C9493000C94930045
:100010000C9493000C9493000C9493000C94930014
:100020000C9493000C9493000C9493000C94930004
:100030000C9493000C9493000C9493000C949300F4
:100040000C9493000C9493000C9493000C949300E4
:100050000C9493000C9493000C9493000C949300D4
:100060000C9493000C9493000C9493000C949300C4
:100070000C9493000C9493000C9493000C949300B4
:100080000C9493000C9493000C9493000C949300A4
:100090000C9493000C9493000C9493000C94930094
:1000A0000C9493000C9493000C9493000C94930084
:1000B0000C9493000C9493000C9493000C94930074
:1000C0000C9493000C9493000C9493000C94930064
:1000D0000C9493000C9493000C9493000C94930054
:1000E0000C94930011241FBECFEFD1E2DEBFCDBF31
:1000F00000E00CBF12E0A0E0B2E0E8E7F2E000E0D0
:100100000BBF02C007900D92A030B107D9F712E0E3
:10011000A0E0B2E001C01D92A030B107E1F70E945B
:10012000FF000C943A010C940000AAE0B1E08C911D
:10013000846E8C93EBE0F1E08081887180838C91F8
:1001400088618C9380818861808308950E949500E6
:100150000895E1E2F1E010828FEF8093250193E0B2
:1001600090932401909329018093280190932B016F
:1001700080932A0190932D0180932C018BEA809328
:10018000200185E0808308959093290180932801C0
:1001900070932B0160932A010895EBE0F1E09081C8
:1001A0009871892B8083089580EA0E94CD0008957C
:1001B00084E40E94CD00089584E80E94CD00089553
:1001C00080E60E94CD00089580E80E94CD00089549
:1001D00080E20E94CD00089580E40E94CD00089541
:1001E00084E00E94CD00089580E00E94CD00089533
:1001F000F8940E94A6000E94A900789408950E9495
:10020000F8008FEF90E06FEF70E00E94C4000E9452
:10021000D4008FEF9FEFA6E881509040A040E1F717
:1002200000C000000E94F4008FEF9FE7A6E181501C
:100230009040A040E1F700C000008FEF93E06FEF27
:1002400073E00E94C4000E94D8008FEF9FEFA6E8E1
:1002500081509040A040E1F700C000000E94F400EF
:100260008FEF9FE7A6E181509040A040E1F700C0EA
:080270000000C7CFF894FFCF96
:00000001FF
